{
  "_format": "hh-sol-artifact-1",
  "contractName": "ERC721Minter",
  "sourceName": "contracts/ERC721Minter.sol",
  "abi": [
    {
      "inputs": [],
      "stateMutability": "nonpayable",
      "type": "constructor"
    },
    {
      "anonymous": false,
      "inputs": [
        {
          "indexed": true,
          "internalType": "address",
          "name": "owner",
          "type": "address"
        },
        {
          "indexed": true,
          "internalType": "address",
          "name": "approved",
          "type": "address"
        },
        {
          "indexed": true,
          "internalType": "uint256",
          "name": "tokenId",
          "type": "uint256"
        }
      ],
      "name": "Approval",
      "type": "event"
    },
    {
      "anonymous": false,
      "inputs": [
        {
          "indexed": true,
          "internalType": "address",
          "name": "owner",
          "type": "address"
        },
        {
          "indexed": true,
          "internalType": "address",
          "name": "operator",
          "type": "address"
        },
        {
          "indexed": false,
          "internalType": "bool",
          "name": "approved",
          "type": "bool"
        }
      ],
      "name": "ApprovalForAll",
      "type": "event"
    },
    {
      "anonymous": false,
      "inputs": [
        {
          "indexed": true,
          "internalType": "address",
          "name": "previousOwner",
          "type": "address"
        },
        {
          "indexed": true,
          "internalType": "address",
          "name": "newOwner",
          "type": "address"
        }
      ],
      "name": "OwnershipTransferred",
      "type": "event"
    },
    {
      "anonymous": false,
      "inputs": [
        {
          "indexed": true,
          "internalType": "address",
          "name": "from",
          "type": "address"
        },
        {
          "indexed": true,
          "internalType": "address",
          "name": "to",
          "type": "address"
        },
        {
          "indexed": true,
          "internalType": "uint256",
          "name": "tokenId",
          "type": "uint256"
        }
      ],
      "name": "Transfer",
      "type": "event"
    },
    {
      "inputs": [
        {
          "internalType": "address",
          "name": "to",
          "type": "address"
        },
        {
          "internalType": "uint256",
          "name": "tokenId",
          "type": "uint256"
        }
      ],
      "name": "approve",
      "outputs": [],
      "stateMutability": "nonpayable",
      "type": "function"
    },
    {
      "inputs": [
        {
          "internalType": "address",
          "name": "owner",
          "type": "address"
        }
      ],
      "name": "balanceOf",
      "outputs": [
        {
          "internalType": "uint256",
          "name": "",
          "type": "uint256"
        }
      ],
      "stateMutability": "view",
      "type": "function"
    },
    {
      "inputs": [
        {
          "internalType": "string",
          "name": "tokenURI",
          "type": "string"
        }
      ],
      "name": "createItem",
      "outputs": [
        {
          "internalType": "uint256",
          "name": "",
          "type": "uint256"
        }
      ],
      "stateMutability": "nonpayable",
      "type": "function"
    },
    {
      "inputs": [
        {
          "internalType": "uint256",
          "name": "tokenId",
          "type": "uint256"
        }
      ],
      "name": "getApproved",
      "outputs": [
        {
          "internalType": "address",
          "name": "",
          "type": "address"
        }
      ],
      "stateMutability": "view",
      "type": "function"
    },
    {
      "inputs": [
        {
          "internalType": "address",
          "name": "owner",
          "type": "address"
        },
        {
          "internalType": "address",
          "name": "operator",
          "type": "address"
        }
      ],
      "name": "isApprovedForAll",
      "outputs": [
        {
          "internalType": "bool",
          "name": "",
          "type": "bool"
        }
      ],
      "stateMutability": "view",
      "type": "function"
    },
    {
      "inputs": [],
      "name": "name",
      "outputs": [
        {
          "internalType": "string",
          "name": "",
          "type": "string"
        }
      ],
      "stateMutability": "view",
      "type": "function"
    },
    {
      "inputs": [],
      "name": "owner",
      "outputs": [
        {
          "internalType": "address",
          "name": "",
          "type": "address"
        }
      ],
      "stateMutability": "view",
      "type": "function"
    },
    {
      "inputs": [
        {
          "internalType": "uint256",
          "name": "tokenId",
          "type": "uint256"
        }
      ],
      "name": "ownerOf",
      "outputs": [
        {
          "internalType": "address",
          "name": "",
          "type": "address"
        }
      ],
      "stateMutability": "view",
      "type": "function"
    },
    {
      "inputs": [],
      "name": "renounceOwnership",
      "outputs": [],
      "stateMutability": "nonpayable",
      "type": "function"
    },
    {
      "inputs": [
        {
          "internalType": "address",
          "name": "from",
          "type": "address"
        },
        {
          "internalType": "address",
          "name": "to",
          "type": "address"
        },
        {
          "internalType": "uint256",
          "name": "tokenId",
          "type": "uint256"
        }
      ],
      "name": "safeTransferFrom",
      "outputs": [],
      "stateMutability": "nonpayable",
      "type": "function"
    },
    {
      "inputs": [
        {
          "internalType": "address",
          "name": "from",
          "type": "address"
        },
        {
          "internalType": "address",
          "name": "to",
          "type": "address"
        },
        {
          "internalType": "uint256",
          "name": "tokenId",
          "type": "uint256"
        },
        {
          "internalType": "bytes",
          "name": "data",
          "type": "bytes"
        }
      ],
      "name": "safeTransferFrom",
      "outputs": [],
      "stateMutability": "nonpayable",
      "type": "function"
    },
    {
      "inputs": [
        {
          "internalType": "address",
          "name": "operator",
          "type": "address"
        },
        {
          "internalType": "bool",
          "name": "approved",
          "type": "bool"
        }
      ],
      "name": "setApprovalForAll",
      "outputs": [],
      "stateMutability": "nonpayable",
      "type": "function"
    },
    {
      "inputs": [
        {
          "internalType": "bytes4",
          "name": "interfaceId",
          "type": "bytes4"
        }
      ],
      "name": "supportsInterface",
      "outputs": [
        {
          "internalType": "bool",
          "name": "",
          "type": "bool"
        }
      ],
      "stateMutability": "view",
      "type": "function"
    },
    {
      "inputs": [],
      "name": "symbol",
      "outputs": [
        {
          "internalType": "string",
          "name": "",
          "type": "string"
        }
      ],
      "stateMutability": "view",
      "type": "function"
    },
    {
      "inputs": [
        {
          "internalType": "uint256",
          "name": "tokenId",
          "type": "uint256"
        }
      ],
      "name": "tokenURI",
      "outputs": [
        {
          "internalType": "string",
          "name": "",
          "type": "string"
        }
      ],
      "stateMutability": "view",
      "type": "function"
    },
    {
      "inputs": [
        {
          "internalType": "address",
          "name": "from",
          "type": "address"
        },
        {
          "internalType": "address",
          "name": "to",
          "type": "address"
        },
        {
          "internalType": "uint256",
          "name": "tokenId",
          "type": "uint256"
        }
      ],
      "name": "transferFrom",
      "outputs": [],
      "stateMutability": "nonpayable",
      "type": "function"
    },
    {
      "inputs": [
        {
          "internalType": "address",
          "name": "newOwner",
          "type": "address"
        }
      ],
      "name": "transferOwnership",
      "outputs": [],
      "stateMutability": "nonpayable",
      "type": "function"
    }
  ],
  "bytecode": "0x60806040523480156200001157600080fd5b506040518060400160405280600c81526020017f4552433732314d696e74657200000000000000000000000000000000000000008152506040518060400160405280600781526020017f454d494e54455200000000000000000000000000000000000000000000000000815250816000908051906020019062000096929190620001a6565b508060019080519060200190620000af929190620001a6565b505050620000d2620000c6620000d860201b60201c565b620000e060201b60201c565b620002bb565b600033905090565b6000600760009054906101000a900473ffffffffffffffffffffffffffffffffffffffff16905081600760006101000a81548173ffffffffffffffffffffffffffffffffffffffff021916908373ffffffffffffffffffffffffffffffffffffffff1602179055508173ffffffffffffffffffffffffffffffffffffffff168173ffffffffffffffffffffffffffffffffffffffff167f8be0079c531659141344cd1fd0a4f28419497f9722a3daafe3b4186f6b6457e060405160405180910390a35050565b828054620001b49062000285565b90600052602060002090601f016020900481019282620001d8576000855562000224565b82601f10620001f357805160ff191683800117855562000224565b8280016001018555821562000224579182015b828111156200022357825182559160200191906001019062000206565b5b50905062000233919062000237565b5090565b5b808211156200025257600081600090555060010162000238565b5090565b7f4e487b7100000000000000000000000000000000000000000000000000000000600052602260045260246000fd5b600060028204905060018216806200029e57607f821691505b60208210811415620002b557620002b462000256565b5b50919050565b612dc280620002cb6000396000f3fe608060405234801561001057600080fd5b506004361061010b5760003560e01c806370a08231116100a2578063a22cb46511610071578063a22cb465146102b8578063b88d4fde146102d4578063c87b56dd146102f0578063e985e9c514610320578063f2fde38b146103505761010b565b806370a0823114610242578063715018a6146102725780638da5cb5b1461027c57806395d89b411461029a5761010b565b806323b872dd116100de57806323b872dd146101aa5780633d54eebb146101c657806342842e0e146101f65780636352211e146102125761010b565b806301ffc9a71461011057806306fdde0314610140578063081812fc1461015e578063095ea7b31461018e575b600080fd5b61012a60048036038101906101259190611bfe565b61036c565b6040516101379190611c46565b60405180910390f35b61014861044e565b6040516101559190611cfa565b60405180910390f35b61017860048036038101906101739190611d52565b6104e0565b6040516101859190611dc0565b60405180910390f35b6101a860048036038101906101a39190611e07565b610526565b005b6101c460048036038101906101bf9190611e47565b61063e565b005b6101e060048036038101906101db9190611fcf565b61069e565b6040516101ed9190612027565b60405180910390f35b610210600480360381019061020b9190611e47565b610778565b005b61022c60048036038101906102279190611d52565b610798565b6040516102399190611dc0565b60405180910390f35b61025c60048036038101906102579190612042565b61084a565b6040516102699190612027565b60405180910390f35b61027a610902565b005b610284610916565b6040516102919190611dc0565b60405180910390f35b6102a2610940565b6040516102af9190611cfa565b60405180910390f35b6102d260048036038101906102cd919061209b565b6109d2565b005b6102ee60048036038101906102e9919061217c565b6109e8565b005b61030a60048036038101906103059190611d52565b610a4a565b6040516103179190611cfa565b60405180910390f35b61033a600480360381019061033591906121ff565b610b5d565b6040516103479190611c46565b60405180910390f35b61036a60048036038101906103659190612042565b610bf1565b005b60007f80ac58cd000000000000000000000000000000000000000000000000000000007bffffffffffffffffffffffffffffffffffffffffffffffffffffffff1916827bffffffffffffffffffffffffffffffffffffffffffffffffffffffff1916148061043757507f5b5e139f000000000000000000000000000000000000000000000000000000007bffffffffffffffffffffffffffffffffffffffffffffffffffffffff1916827bffffffffffffffffffffffffffffffffffffffffffffffffffffffff1916145b80610447575061044682610c75565b5b9050919050565b60606000805461045d9061226e565b80601f01602080910402602001604051908101604052809291908181526020018280546104899061226e565b80156104d65780601f106104ab576101008083540402835291602001916104d6565b820191906000526020600020905b8154815290600101906020018083116104b957829003601f168201915b5050505050905090565b60006104eb82610cdf565b6004600083815260200190815260200160002060009054906101000a900473ffffffffffffffffffffffffffffffffffffffff169050919050565b600061053182610798565b90508073ffffffffffffffffffffffffffffffffffffffff168373ffffffffffffffffffffffffffffffffffffffff1614156105a2576040517f08c379a000000000000000000000000000000000000000000000000000000000815260040161059990612312565b60405180910390fd5b8073ffffffffffffffffffffffffffffffffffffffff166105c1610d2a565b73ffffffffffffffffffffffffffffffffffffffff1614806105f057506105ef816105ea610d2a565b610b5d565b5b61062f576040517f08c379a0000000000000000000000000000000000000000000000000000000008152600401610626906123a4565b60405180910390fd5b6106398383610d32565b505050565b61064f610649610d2a565b82610deb565b61068e576040517f08c379a000000000000000000000000000000000000000000000000000000000815260040161068590612436565b60405180910390fd5b610699838383610e80565b505050565b60006009826040516106b09190612492565b908152602001604051809103902060009054906101000a900460ff161561070c576040517f08c379a00000000000000000000000000000000000000000000000000000000081526004016107039061251b565b60405180910390fd5b600160098360405161071e9190612492565b908152602001604051809103902060006101000a81548160ff02191690831515021790555061074d60086110e7565b600061075960086110fd565b9050610765338261110b565b61076f8184611129565b80915050919050565b610793838383604051806020016040528060008152506109e8565b505050565b6000806002600084815260200190815260200160002060009054906101000a900473ffffffffffffffffffffffffffffffffffffffff169050600073ffffffffffffffffffffffffffffffffffffffff168173ffffffffffffffffffffffffffffffffffffffff161415610841576040517f08c379a000000000000000000000000000000000000000000000000000000000815260040161083890612587565b60405180910390fd5b80915050919050565b60008073ffffffffffffffffffffffffffffffffffffffff168273ffffffffffffffffffffffffffffffffffffffff1614156108bb576040517f08c379a00000000000000000000000000000000000000000000000000000000081526004016108b290612619565b60405180910390fd5b600360008373ffffffffffffffffffffffffffffffffffffffff1673ffffffffffffffffffffffffffffffffffffffff168152602001908152602001600020549050919050565b61090a61119d565b610914600061121b565b565b6000600760009054906101000a900473ffffffffffffffffffffffffffffffffffffffff16905090565b60606001805461094f9061226e565b80601f016020809104026020016040519081016040528092919081815260200182805461097b9061226e565b80156109c85780601f1061099d576101008083540402835291602001916109c8565b820191906000526020600020905b8154815290600101906020018083116109ab57829003601f168201915b5050505050905090565b6109e46109dd610d2a565b83836112e1565b5050565b6109f96109f3610d2a565b83610deb565b610a38576040517f08c379a0000000000000000000000000000000000000000000000000000000008152600401610a2f90612436565b60405180910390fd5b610a448484848461144e565b50505050565b6060610a5582610cdf565b6000600660008481526020019081526020016000208054610a759061226e565b80601f0160208091040260200160405190810160405280929190818152602001828054610aa19061226e565b8015610aee5780601f10610ac357610100808354040283529160200191610aee565b820191906000526020600020905b815481529060010190602001808311610ad157829003601f168201915b505050505090506000610aff6114aa565b9050600081511415610b15578192505050610b58565b600082511115610b4a578082604051602001610b32929190612639565b60405160208183030381529060405292505050610b58565b610b53846114c1565b925050505b919050565b6000600560008473ffffffffffffffffffffffffffffffffffffffff1673ffffffffffffffffffffffffffffffffffffffff16815260200190815260200160002060008373ffffffffffffffffffffffffffffffffffffffff1673ffffffffffffffffffffffffffffffffffffffff16815260200190815260200160002060009054906101000a900460ff16905092915050565b610bf961119d565b600073ffffffffffffffffffffffffffffffffffffffff168173ffffffffffffffffffffffffffffffffffffffff161415610c69576040517f08c379a0000000000000000000000000000000000000000000000000000000008152600401610c60906126cf565b60405180910390fd5b610c728161121b565b50565b60007f01ffc9a7000000000000000000000000000000000000000000000000000000007bffffffffffffffffffffffffffffffffffffffffffffffffffffffff1916827bffffffffffffffffffffffffffffffffffffffffffffffffffffffff1916149050919050565b610ce881611529565b610d27576040517f08c379a0000000000000000000000000000000000000000000000000000000008152600401610d1e90612587565b60405180910390fd5b50565b600033905090565b816004600083815260200190815260200160002060006101000a81548173ffffffffffffffffffffffffffffffffffffffff021916908373ffffffffffffffffffffffffffffffffffffffff160217905550808273ffffffffffffffffffffffffffffffffffffffff16610da583610798565b73ffffffffffffffffffffffffffffffffffffffff167f8c5be1e5ebec7d5bd14f71427d1e84f3dd0314c0f7b2291e5b200ac8c7c3b92560405160405180910390a45050565b600080610df783610798565b90508073ffffffffffffffffffffffffffffffffffffffff168473ffffffffffffffffffffffffffffffffffffffff161480610e395750610e388185610b5d565b5b80610e7757508373ffffffffffffffffffffffffffffffffffffffff16610e5f846104e0565b73ffffffffffffffffffffffffffffffffffffffff16145b91505092915050565b8273ffffffffffffffffffffffffffffffffffffffff16610ea082610798565b73ffffffffffffffffffffffffffffffffffffffff1614610ef6576040517f08c379a0000000000000000000000000000000000000000000000000000000008152600401610eed90612761565b60405180910390fd5b600073ffffffffffffffffffffffffffffffffffffffff168273ffffffffffffffffffffffffffffffffffffffff161415610f66576040517f08c379a0000000000000000000000000000000000000000000000000000000008152600401610f5d906127f3565b60405180910390fd5b610f71838383611595565b610f7c600082610d32565b6001600360008573ffffffffffffffffffffffffffffffffffffffff1673ffffffffffffffffffffffffffffffffffffffff1681526020019081526020016000206000828254610fcc9190612842565b925050819055506001600360008473ffffffffffffffffffffffffffffffffffffffff1673ffffffffffffffffffffffffffffffffffffffff16815260200190815260200160002060008282546110239190612876565b92505081905550816002600083815260200190815260200160002060006101000a81548173ffffffffffffffffffffffffffffffffffffffff021916908373ffffffffffffffffffffffffffffffffffffffff160217905550808273ffffffffffffffffffffffffffffffffffffffff168473ffffffffffffffffffffffffffffffffffffffff167fddf252ad1be2c89b69c2b068fc378daa952ba7f163c4a11628f55a4df523b3ef60405160405180910390a46110e283838361159a565b505050565b6001816000016000828254019250508190555050565b600081600001549050919050565b61112582826040518060200160405280600081525061159f565b5050565b61113282611529565b611171576040517f08c379a00000000000000000000000000000000000000000000000000000000081526004016111689061293e565b60405180910390fd5b80600660008481526020019081526020016000209080519060200190611198929190611aef565b505050565b6111a5610d2a565b73ffffffffffffffffffffffffffffffffffffffff166111c3610916565b73ffffffffffffffffffffffffffffffffffffffff1614611219576040517f08c379a0000000000000000000000000000000000000000000000000000000008152600401611210906129aa565b60405180910390fd5b565b6000600760009054906101000a900473ffffffffffffffffffffffffffffffffffffffff16905081600760006101000a81548173ffffffffffffffffffffffffffffffffffffffff021916908373ffffffffffffffffffffffffffffffffffffffff1602179055508173ffffffffffffffffffffffffffffffffffffffff168173ffffffffffffffffffffffffffffffffffffffff167f8be0079c531659141344cd1fd0a4f28419497f9722a3daafe3b4186f6b6457e060405160405180910390a35050565b8173ffffffffffffffffffffffffffffffffffffffff168373ffffffffffffffffffffffffffffffffffffffff161415611350576040517f08c379a000000000000000000000000000000000000000000000000000000000815260040161134790612a16565b60405180910390fd5b80600560008573ffffffffffffffffffffffffffffffffffffffff1673ffffffffffffffffffffffffffffffffffffffff16815260200190815260200160002060008473ffffffffffffffffffffffffffffffffffffffff1673ffffffffffffffffffffffffffffffffffffffff16815260200190815260200160002060006101000a81548160ff0219169083151502179055508173ffffffffffffffffffffffffffffffffffffffff168373ffffffffffffffffffffffffffffffffffffffff167f17307eab39ab6107e8899845ad3d59bd9653f200f220920489ca2b5937696c31836040516114419190611c46565b60405180910390a3505050565b611459848484610e80565b611465848484846115fa565b6114a4576040517f08c379a000000000000000000000000000000000000000000000000000000000815260040161149b90612aa8565b60405180910390fd5b50505050565b606060405180602001604052806000815250905090565b60606114cc82610cdf565b60006114d66114aa565b905060008151116114f65760405180602001604052806000815250611521565b8061150084611791565b604051602001611511929190612639565b6040516020818303038152906040525b915050919050565b60008073ffffffffffffffffffffffffffffffffffffffff166002600084815260200190815260200160002060009054906101000a900473ffffffffffffffffffffffffffffffffffffffff1673ffffffffffffffffffffffffffffffffffffffff1614159050919050565b505050565b505050565b6115a983836118f2565b6115b660008484846115fa565b6115f5576040517f08c379a00000000000000000000000000000000000000000000000000000000081526004016115ec90612aa8565b60405180910390fd5b505050565b600061161b8473ffffffffffffffffffffffffffffffffffffffff16611acc565b15611784578373ffffffffffffffffffffffffffffffffffffffff1663150b7a02611644610d2a565b8786866040518563ffffffff1660e01b81526004016116669493929190612b1d565b602060405180830381600087803b15801561168057600080fd5b505af19250505080156116b157506040513d601f19601f820116820180604052508101906116ae9190612b7e565b60015b611734573d80600081146116e1576040519150601f19603f3d011682016040523d82523d6000602084013e6116e6565b606091505b5060008151141561172c576040517f08c379a000000000000000000000000000000000000000000000000000000000815260040161172390612aa8565b60405180910390fd5b805181602001fd5b63150b7a0260e01b7bffffffffffffffffffffffffffffffffffffffffffffffffffffffff1916817bffffffffffffffffffffffffffffffffffffffffffffffffffffffff191614915050611789565b600190505b949350505050565b606060008214156117d9576040518060400160405280600181526020017f300000000000000000000000000000000000000000000000000000000000000081525090506118ed565b600082905060005b6000821461180b5780806117f490612bab565b915050600a826118049190612c23565b91506117e1565b60008167ffffffffffffffff81111561182757611826611ea4565b5b6040519080825280601f01601f1916602001820160405280156118595781602001600182028036833780820191505090505b5090505b600085146118e6576001826118729190612842565b9150600a856118819190612c54565b603061188d9190612876565b60f81b8183815181106118a3576118a2612c85565b5b60200101907effffffffffffffffffffffffffffffffffffffffffffffffffffffffffffff1916908160001a905350600a856118df9190612c23565b945061185d565b8093505050505b919050565b600073ffffffffffffffffffffffffffffffffffffffff168273ffffffffffffffffffffffffffffffffffffffff161415611962576040517f08c379a000000000000000000000000000000000000000000000000000000000815260040161195990612d00565b60405180910390fd5b61196b81611529565b156119ab576040517f08c379a00000000000000000000000000000000000000000000000000000000081526004016119a290612d6c565b60405180910390fd5b6119b760008383611595565b6001600360008473ffffffffffffffffffffffffffffffffffffffff1673ffffffffffffffffffffffffffffffffffffffff1681526020019081526020016000206000828254611a079190612876565b92505081905550816002600083815260200190815260200160002060006101000a81548173ffffffffffffffffffffffffffffffffffffffff021916908373ffffffffffffffffffffffffffffffffffffffff160217905550808273ffffffffffffffffffffffffffffffffffffffff16600073ffffffffffffffffffffffffffffffffffffffff167fddf252ad1be2c89b69c2b068fc378daa952ba7f163c4a11628f55a4df523b3ef60405160405180910390a4611ac86000838361159a565b5050565b6000808273ffffffffffffffffffffffffffffffffffffffff163b119050919050565b828054611afb9061226e565b90600052602060002090601f016020900481019282611b1d5760008555611b64565b82601f10611b3657805160ff1916838001178555611b64565b82800160010185558215611b64579182015b82811115611b63578251825591602001919060010190611b48565b5b509050611b719190611b75565b5090565b5b80821115611b8e576000816000905550600101611b76565b5090565b6000604051905090565b600080fd5b600080fd5b60007fffffffff0000000000000000000000000000000000000000000000000000000082169050919050565b611bdb81611ba6565b8114611be657600080fd5b50565b600081359050611bf881611bd2565b92915050565b600060208284031215611c1457611c13611b9c565b5b6000611c2284828501611be9565b91505092915050565b60008115159050919050565b611c4081611c2b565b82525050565b6000602082019050611c5b6000830184611c37565b92915050565b600081519050919050565b600082825260208201905092915050565b60005b83811015611c9b578082015181840152602081019050611c80565b83811115611caa576000848401525b50505050565b6000601f19601f8301169050919050565b6000611ccc82611c61565b611cd68185611c6c565b9350611ce6818560208601611c7d565b611cef81611cb0565b840191505092915050565b60006020820190508181036000830152611d148184611cc1565b905092915050565b6000819050919050565b611d2f81611d1c565b8114611d3a57600080fd5b50565b600081359050611d4c81611d26565b92915050565b600060208284031215611d6857611d67611b9c565b5b6000611d7684828501611d3d565b91505092915050565b600073ffffffffffffffffffffffffffffffffffffffff82169050919050565b6000611daa82611d7f565b9050919050565b611dba81611d9f565b82525050565b6000602082019050611dd56000830184611db1565b92915050565b611de481611d9f565b8114611def57600080fd5b50565b600081359050611e0181611ddb565b92915050565b60008060408385031215611e1e57611e1d611b9c565b5b6000611e2c85828601611df2565b9250506020611e3d85828601611d3d565b9150509250929050565b600080600060608486031215611e6057611e5f611b9c565b5b6000611e6e86828701611df2565b9350506020611e7f86828701611df2565b9250506040611e9086828701611d3d565b9150509250925092565b600080fd5b600080fd5b7f4e487b7100000000000000000000000000000000000000000000000000000000600052604160045260246000fd5b611edc82611cb0565b810181811067ffffffffffffffff82111715611efb57611efa611ea4565b5b80604052505050565b6000611f0e611b92565b9050611f1a8282611ed3565b919050565b600067ffffffffffffffff821115611f3a57611f39611ea4565b5b611f4382611cb0565b9050602081019050919050565b82818337600083830152505050565b6000611f72611f6d84611f1f565b611f04565b905082815260208101848484011115611f8e57611f8d611e9f565b5b611f99848285611f50565b509392505050565b600082601f830112611fb657611fb5611e9a565b5b8135611fc6848260208601611f5f565b91505092915050565b600060208284031215611fe557611fe4611b9c565b5b600082013567ffffffffffffffff81111561200357612002611ba1565b5b61200f84828501611fa1565b91505092915050565b61202181611d1c565b82525050565b600060208201905061203c6000830184612018565b92915050565b60006020828403121561205857612057611b9c565b5b600061206684828501611df2565b91505092915050565b61207881611c2b565b811461208357600080fd5b50565b6000813590506120958161206f565b92915050565b600080604083850312156120b2576120b1611b9c565b5b60006120c085828601611df2565b92505060206120d185828601612086565b9150509250929050565b600067ffffffffffffffff8211156120f6576120f5611ea4565b5b6120ff82611cb0565b9050602081019050919050565b600061211f61211a846120db565b611f04565b90508281526020810184848401111561213b5761213a611e9f565b5b612146848285611f50565b509392505050565b600082601f83011261216357612162611e9a565b5b813561217384826020860161210c565b91505092915050565b6000806000806080858703121561219657612195611b9c565b5b60006121a487828801611df2565b94505060206121b587828801611df2565b93505060406121c687828801611d3d565b925050606085013567ffffffffffffffff8111156121e7576121e6611ba1565b5b6121f38782880161214e565b91505092959194509250565b6000806040838503121561221657612215611b9c565b5b600061222485828601611df2565b925050602061223585828601611df2565b9150509250929050565b7f4e487b7100000000000000000000000000000000000000000000000000000000600052602260045260246000fd5b6000600282049050600182168061228657607f821691505b6020821081141561229a5761229961223f565b5b50919050565b7f4552433732313a20617070726f76616c20746f2063757272656e74206f776e6560008201527f7200000000000000000000000000000000000000000000000000000000000000602082015250565b60006122fc602183611c6c565b9150612307826122a0565b604082019050919050565b6000602082019050818103600083015261232b816122ef565b9050919050565b7f4552433732313a20617070726f76652063616c6c6572206973206e6f7420746f60008201527f6b656e206f776e6572206e6f7220617070726f76656420666f7220616c6c0000602082015250565b600061238e603e83611c6c565b915061239982612332565b604082019050919050565b600060208201905081810360008301526123bd81612381565b9050919050565b7f4552433732313a2063616c6c6572206973206e6f7420746f6b656e206f776e6560008201527f72206e6f7220617070726f766564000000000000000000000000000000000000602082015250565b6000612420602e83611c6c565b915061242b826123c4565b604082019050919050565b6000602082019050818103600083015261244f81612413565b9050919050565b600081905092915050565b600061246c82611c61565b6124768185612456565b9350612486818560208601611c7d565b80840191505092915050565b600061249e8284612461565b915081905092915050565b7f4552433732314d657461646174613a2055524920746f6b656e2073686f756c6460008201527f20626520756e6971756521000000000000000000000000000000000000000000602082015250565b6000612505602b83611c6c565b9150612510826124a9565b604082019050919050565b60006020820190508181036000830152612534816124f8565b9050919050565b7f4552433732313a20696e76616c696420746f6b656e2049440000000000000000600082015250565b6000612571601883611c6c565b915061257c8261253b565b602082019050919050565b600060208201905081810360008301526125a081612564565b9050919050565b7f4552433732313a2061646472657373207a65726f206973206e6f74206120766160008201527f6c6964206f776e65720000000000000000000000000000000000000000000000602082015250565b6000612603602983611c6c565b915061260e826125a7565b604082019050919050565b60006020820190508181036000830152612632816125f6565b9050919050565b60006126458285612461565b91506126518284612461565b91508190509392505050565b7f4f776e61626c653a206e6577206f776e657220697320746865207a65726f206160008201527f6464726573730000000000000000000000000000000000000000000000000000602082015250565b60006126b9602683611c6c565b91506126c48261265d565b604082019050919050565b600060208201905081810360008301526126e8816126ac565b9050919050565b7f4552433732313a207472616e736665722066726f6d20696e636f72726563742060008201527f6f776e6572000000000000000000000000000000000000000000000000000000602082015250565b600061274b602583611c6c565b9150612756826126ef565b604082019050919050565b6000602082019050818103600083015261277a8161273e565b9050919050565b7f4552433732313a207472616e7366657220746f20746865207a65726f2061646460008201527f7265737300000000000000000000000000000000000000000000000000000000602082015250565b60006127dd602483611c6c565b91506127e882612781565b604082019050919050565b6000602082019050818103600083015261280c816127d0565b9050919050565b7f4e487b7100000000000000000000000000000000000000000000000000000000600052601160045260246000fd5b600061284d82611d1c565b915061285883611d1c565b92508282101561286b5761286a612813565b5b828203905092915050565b600061288182611d1c565b915061288c83611d1c565b9250827fffffffffffffffffffffffffffffffffffffffffffffffffffffffffffffffff038211156128c1576128c0612813565b5b828201905092915050565b7f45524337323155524953746f726167653a2055524920736574206f66206e6f6e60008201527f6578697374656e7420746f6b656e000000000000000000000000000000000000602082015250565b6000612928602e83611c6c565b9150612933826128cc565b604082019050919050565b600060208201905081810360008301526129578161291b565b9050919050565b7f4f776e61626c653a2063616c6c6572206973206e6f7420746865206f776e6572600082015250565b6000612994602083611c6c565b915061299f8261295e565b602082019050919050565b600060208201905081810360008301526129c381612987565b9050919050565b7f4552433732313a20617070726f766520746f2063616c6c657200000000000000600082015250565b6000612a00601983611c6c565b9150612a0b826129ca565b602082019050919050565b60006020820190508181036000830152612a2f816129f3565b9050919050565b7f4552433732313a207472616e7366657220746f206e6f6e20455243373231526560008201527f63656976657220696d706c656d656e7465720000000000000000000000000000602082015250565b6000612a92603283611c6c565b9150612a9d82612a36565b604082019050919050565b60006020820190508181036000830152612ac181612a85565b9050919050565b600081519050919050565b600082825260208201905092915050565b6000612aef82612ac8565b612af98185612ad3565b9350612b09818560208601611c7d565b612b1281611cb0565b840191505092915050565b6000608082019050612b326000830187611db1565b612b3f6020830186611db1565b612b4c6040830185612018565b8181036060830152612b5e8184612ae4565b905095945050505050565b600081519050612b7881611bd2565b92915050565b600060208284031215612b9457612b93611b9c565b5b6000612ba284828501612b69565b91505092915050565b6000612bb682611d1c565b91507fffffffffffffffffffffffffffffffffffffffffffffffffffffffffffffffff821415612be957612be8612813565b5b600182019050919050565b7f4e487b7100000000000000000000000000000000000000000000000000000000600052601260045260246000fd5b6000612c2e82611d1c565b9150612c3983611d1c565b925082612c4957612c48612bf4565b5b828204905092915050565b6000612c5f82611d1c565b9150612c6a83611d1c565b925082612c7a57612c79612bf4565b5b828206905092915050565b7f4e487b7100000000000000000000000000000000000000000000000000000000600052603260045260246000fd5b7f4552433732313a206d696e7420746f20746865207a65726f2061646472657373600082015250565b6000612cea602083611c6c565b9150612cf582612cb4565b602082019050919050565b60006020820190508181036000830152612d1981612cdd565b9050919050565b7f4552433732313a20746f6b656e20616c7265616479206d696e74656400000000600082015250565b6000612d56601c83611c6c565b9150612d6182612d20565b602082019050919050565b60006020820190508181036000830152612d8581612d49565b905091905056fea26469706673582212205b7183d6fa86fbbea1782fd2267cbfd348b19a10ddd6cc8d18e3b1de7fd5249564736f6c63430008090033",
  "linkReferences": {},
  "deployedLinkReferences": {}
}